:100000000C943E000C945B000C945B000C945B0021
:100010000C945B000C945B000C945B000C945B00F4
:100020000C945B000C945B000C945B000C945B00E4
:100030000C945B000C945B000C945B000C945B00D4
:100040000C945B000C945B000C945B000C945B00C4
:100050000C945B000C945B000C945B000C945B00B4
:100060000C945B000C945B000C945B000C945B00A4
:100070000C945B000C945B000C945B0011241FBE7D
:10008000CFEFD8E0DEBFCDBF11E0A0E0B1E0EEE5FC
:10009000F8E002C005900D92AA30B107D9F721E02F
:1000A000AAE0B1E001C01D92AA35B207E1F70E94B3
:1000B00027010C942D040C940000FB01908121E099
:1000C00030E001C0220F8A95EAF7922B90830895C1
:1000D000FB01908121E030E001C0220F8A95EAF710
:1000E0002095292320830895FB01908121E030E0B1
:1000F00001C0220F8A95EAF7922B9083089584B16C
:10010000826884B9539A8CB582658CBD08958EBD82
:100110000DB407FEFDCF8EB508959091C90094FDF2
:10012000FCCF8093D2000895E8ECF0E080E8808373
:100130001092CE0089E18093CD0084E08093CC00C2
:100140008FE0808308950F931F93CF93DF93EC018B
:100150008C0160E570E0CE010E945B0198012C1BD0
:100160003D0B2817390728F0DF91CF911F910F9190
:100170000895F80181918F010E948D00EACF0F93BD
:100180001F93CF93DF93CDB7DEB7AE01495F5F4FCB
:10019000FA0161917191AF018AE091E00E946601DC
:1001A0008C018AE091E00E94A300C801DF91CF9109
:1001B0001F910F910895CF92DF92EF92FF92CF930C
:1001C000DF936BE270E084E090E00E94680080E0E2
:1001D0000E948700C82E80E00E948700D82F80E010
:1001E0000E948700C82F80E00E948700D12CF12C4C
:1001F000E12CFC2CEE24DD24CC244D2F50E070E0CB
:1002000060E0BA0155274427C40ED51EE61EF71E2E
:10021000C80ED11CE11CF11C8C2F90E0B0E0A0E0D6
:10022000BA2FA92F982F8827C80ED91EEA1EFB1EA9
:100230006BE270E084E090E00E947400C701B601B8
:10024000DF91CF91FF90EF90DF90CF9008950E94C3
:100250007F006AE270E084E090E00E945D006BE263
:1002600070E084E090E00E9474000E94940080E0BE
:1002700091E09F938F930E94BF000F900F90C6E074
:10028000D1E00E94DB009F938F937F936F93DF9366
:10029000CF930E94BF009FEF20E782E09150204063
:1002A0008040E1F700C000000F900F900F900F907A
:1002B0000F900F90E6CFFC0161507040019001104B
:1002C000D8F7809590958E0F9F1F0895AEE0B0E00F
:1002D000ECE6F1E00C9404048C0186E08C831A8334
:1002E00009838FEF9FE79E838D83CE0101960E9445
:1002F00083012F813885020F131FF80110822E967B
:10030000E4E00C942004ABE0B0E0E9E8F1E00C9408
:10031000F6037C013B018A01FC011782168283816E
:1003200081FFC8C1CE0101965C01F7019381F30101
:1003300093FD859193FF81913F01882309F453C177
:10034000853239F493FD859193FF81913F01853288
:1003500029F4B70190E00E946803E7CF912C212C8B
:10036000312CFFE1F31538F08B3211F190F480322B
:1003700009F1833229F137FC3CC020ED280F2A30E7
:1003800050F536FE20C08AE0989E200D1124922E52
:1003900006C08D3291F0803371F7689430F8F30124
:1003A00093FD859193FF81913F018111DACF21C0A7
:1003B000689431F8689432F8F2CF689433F8EFCF4C
:1003C000689434F8ECCFEAE02E9E200D1124222E02
:1003D000689435F8E4CF8E3229F436FC04C1689471
:1003E00036F8DDCF8C3619F4689437F8D8CF8836D4
:1003F000B1F2982F9F7D95549330E0F08336A1F1B0
:100400008337C1F1833509F063C02801F2E04F0E54
:10041000511CF801C080D180692D70E036FC02C00B
:100420006FEF7FEFC6010E945D034C01689437F8BF
:1004300082010AC00C5F1F4FFFE3F9838824839475
:10044000912C6501E89437F833FE2DC0522C8114AD
:10045000910471F5552009F468CFB70180E290E06E
:100460000E9468035A94F6CFF801808189830E5F59
:100470001F4FE4CF2801F2E04F0E511CF801C0805D
:10048000D180692D70E036FC02C06FEF7FEFC601AE
:100490000E945B014C018201D5CFB70180E290E060
:1004A0000E9468032A942814190409F0B0F7CECFEB
:1004B000F60137FC859137FE81916F01B70190E01D
:1004C0000E94680351105A94F1E08F1A9108BFCF2F
:1004D000843619F0893609F077C0F80137FE6BC011
:1004E00060817181828193810C5F1F4FF32DFF76B4
:1004F0003F2E97FF09C090958095709561957F4F2D
:100500008F4F9F4F689437F82AE030E0A5010E9492
:100510009803C82ECA188C2C432C36FE0CC0E894C5
:1005200040F8C91440F434FE05C032FC03C0F32D7A
:10053000FE7E4F2E892C44FE95C0FE01EC0DF11D70
:100540008081803309F087C0242D297E422E842D9E
:100550008870582E43FC95C040FE8FC09C2C82149E
:1005600018F42C0C922C981844FE91C0B70180E32B
:1005700090E00E94680342FE09C088E790E041FED7
:1005800002C088E590E0B7010E946803C91408F42E
:100590008AC0CA94D12C9FEFC91AD90ACA0CDB1C95
:1005A000F60182916F01B70190E00E946803AC14DC
:1005B000BD04B1F74FCF60817181072E000C880B0D
:1005C000990B0E5F1F4F92CFD32CE894D4F82AE0FA
:1005D00030E0853739F1232D297FD22E8F3601F176
:1005E00048F48835A9F0F701868197812B96E2E1DE
:1005F0000C941204803749F08837A9F7D4FE02C062
:100600006894D2F820E130E00DC06894D4F8F6CFB9
:1006100034FE03C0822F8660D82E20E132E002C073
:1006200028E030E0F801D7FE0FC06081718182813F
:1006300093810C5F1F4FA5010E949803C82ECA1812
:100640003D2CE89437F867CF6081718190E080E0BD
:100650000E5F1F4FF0CF42FC02C0839478CF83948B
:10066000839475CF842D867809F471CFF6CFB701C6
:1006700080E290E00E94680383948214C0F3512CBE
:1006800073CF522C5818821408F46ECFF8CF842DF3
:10069000867809F47BCF8BE241FE80E247FC8DE255
:1006A000B70190E071CFB70180E390E00E9468034A
:1006B0009A946CCF8FEF9FEF99CFFC01059061501A
:1006C00070400110D8F7809590958E0F9F1F089568
:1006D0000F931F93CF93DF93182F092FEB018B817B
:1006E00081FD09C01FEF0FEF812F902FDF91CF9178
:1006F0001F910F91089582FF14C02E813F818C813C
:100700009D81281739073CF4E881F981CF010196D2
:100710009983888310838E819F8101969F838E8326
:10072000E3CFE885F985812F0995892BA1F3DACFED
:10073000FA01AA27283051F1203181F1E8946F9312
:100740006E7F6E5F7F4F8F4F9F4FAF4FB1E03ED0B8
:10075000B4E03CD0670F781F891F9A1FA11D680F56
:10076000791F8A1F911DA11D6A0F711D811D911D89
:10077000A11D20D009F468943F912AE0269F1124FE
:100780003019305D3193DEF6CF010895462F477062
:10079000405D4193B3E00FD0C9F7F6CF462F4F70BD
:1007A000405D4A3318F0495D31FD4052419302D01B
:1007B000A9F7EACFB4E0A6959795879577956795C1
:1007C000BA95C9F700976105710508959B01AC01C1
:1007D0000A2E06945795479537952795BA95C9F7E8
:1007E000620F731F841F951FA01D08952F923F92C3
:1007F0004F925F926F927F928F929F92AF92BF9231
:10080000CF92DF92EF92FF920F931F93CF93DF93DC
:10081000CDB7DEB7CA1BDB0B0FB6F894DEBF0FBE39
:10082000CDBF09942A88398848885F846E847D8486
:100830008C849B84AA84B984C884DF80EE80FD8088
:100840000C811B81AA81B981CE0FD11D0FB6F894FE
:0E085000DEBF0FBECDBFED010895F894FFCFBF
:0A085E0073746172740025640A00CF
:00000001FF
