:100000000C943E000C9448000C9448000C9448005A
:100010000C9448000C9448000C9448000C94480040
:100020000C9448000C9448000C9448000C94480030
:100030000C9448000C9448000C9448000C94480020
:100040000C9448000C9448000C9448000C94480010
:100050000C9448000C9448000C9448000C94480000
:100060000C9448000C9448000C9448000C944800F0
:100070000C9448000C9448000C94480011241FBEB6
:10008000CFEFD8E0DEBFCDBF0E94D4000C94D700E4
:100090000C940000FB01908121E030E001C0220FB0
:1000A0008A95EAF7922B90830895FB01908121E0D5
:1000B00030E001C0220F8A95EAF72095292320839A
:1000C0000895FB01908121E030E001C0220F8A9564
:1000D000EAF7922B9083089584B1826884B98CB535
:1000E00082658CBD08958EBD0DB407FEFDCF8EB523
:1000F00008951F93CF93DF93C82F162FD42F65E257
:1001000070E083E090E00E9455008C2F880F80649F
:100110000E947300812F0E9473008D2F0E94730034
:1001200065E270E083E090E0DF91CF911F910C9445
:10013000610064E270E083E090E00E944A0065E2C2
:1001400070E083E090E00E9461000E946C0048E053
:100150006AE080E00C947900462F62E10C9479000B
:10016000462F63E10C947900CF93DF93C82FD62FED
:1001700065E270E083E090E00E9455008C2F880FCC
:1001800081640E9473008D2F0E94730080E00E94A2
:100190007300C82F65E270E083E090E00E94610088
:1001A0008C2FDF91CF91089580E090E00895F8942E
:0201B000FFCF7F
:00000001FF
