:100000000C943E000C9448000C9448000C9448005A
:100010000C9448000C9448000C9448000C94480040
:100020000C9448000C9448000C9448000C94480030
:100030000C9448000C9448000C9448000C94480020
:100040000C9448000C9448000C9448000C94480010
:100050000C9448000C9448000C9448000C94480000
:100060000C9448000C9448000C9448000C944800F0
:100070000C9448000C9448000C94480011241FBEB6
:10008000CFEFD8E0DEBFCDBF0E94CE070C94E507CE
:100090000C94000080E08093ED00EEEEF0E0119211
:1000A000E83FF105E1F7805F8036A9F708953091C8
:1000B000ED0090E080E09093ED002091EF00207C37
:1000C00019F43093ED0008958F5F905F863099F7B3
:1000D0003093ED008FEF08958091EF00807C69F000
:1000E0009091EE00892F807E803241F0803431F093
:1000F000803A21F0892F8F7108958FEF0895BC0108
:1001000090E02091EF00492F50E02F7030E042172F
:1001100053070CF008958091FA00460F571FFA011B
:1001200080839F5FEECF8F929F92AF92BF92CF92CC
:10013000DF92EF92FF920F931F93CF93DF93882369
:1001400009F4DFC08091E20090E0959587958F7368
:100150009927892B09F4CDC08091E20090E0959514
:100160008795582F5F735F5F8091E30090E09595CE
:10017000879587709927892B09F4BDC08091E3008A
:1001800090E095958795482F47704F5F8091E400E8
:1001900090E0959587958770992702970CF4ADC0EC
:1001A0008091E40090E095958795982F97709F5FD8
:1001B0002091E40030E074E0359527957A95E1F7D9
:1001C00027703327223031050CF499C02091E400C8
:1001D00030E064E0359527956A95E1F727702F5F49
:1001E000692F70E0640F711D620F711D6830710519
:1001F0000CF48EC061E0640F690F620FA0E081E033
:1002000030E03093ED00EEEEF0E01192E83FF105C2
:10021000E1F7305F3036A9F7FA2E782FB0E0C0E072
:10022000D0E0B12C00E8802E3AE0932EEE24EA9440
:1002300031E0F31243C0F092D80021963FEF350F22
:10024000330F3093E200E22FE695F0E0319715E0AE
:10025000EE0FFF1F1A95E1F7042F10E0015011096E
:10026000000F111FE02BE093E300E22FF0E0319745
:1002700014E0EE0FFF1F1A95E1F7092F10E001506F
:100280001109000F111FE02BE160E093E400FE0173
:1002900013E0F695E7951A95E1F7E093E5001092E3
:1002A000ED001092EE008092EF009092D800309115
:1002B000D90032FFFCCFE092DA00B12C3A2FAA2409
:1002C000A394313049F1A32F713009F463C031E0B8
:1002D000A31609F4ADCF8B2FDF91CF911F910F9112
:1002E000FF90EF90DF90CF90BF90AF909F908F9056
:1002F000089551E039CF41E049CF92E059CF22E053
:100300006FCFA1E022E092E068E043E051E078CFD7
:10031000A0E081E068E074CF3091EE0035FF10C0BE
:100320003091EF003F733093EF001092D80030917E
:10033000D90032FDFCCFB1E070E030E0A12CC1CF9C
:100340003F71B9F071E030E0E091DA00E5FF09C0FB
:10035000B11011C0F091DA00F062F093DA00BB2422
:10036000B394EF7009F4ADCFFF24F39471E030E063
:10037000A8CF31E0E9CF3091DA0030623093DA0073
:100380007B2D30E0EECF503491F05F5F832F22E081
:1003900092E068E081119F5F9930E0F02830E0F052
:1003A000693189F36F5F832F22E092E0F3CF809170
:1003B000EF008F738093EF001092D8008091D900E6
:1003C00082FDFCCFB32F732FA32E832F22E092E068
:1003D00068E07ACF963078F1092F10E0E22FF0E054
:1003E0003196E017F10714F42F5F922F892F820FB7
:1003F000462F481B842F4FEF480F82508830E8F477
:10040000C22ED12CE42FF0E03196E90FF11D8601C8
:10041000000F111F000F111F0E171F0774F0860128
:10042000000F111F0C0D1D1DE017F10734F0A1E0A6
:1004300081E0732F49CF292FD9CF81E0ABCF81E065
:100440008093D80082E08093E2008CE08093E30008
:1004500087E38093E40081E008950E941F028823CF
:1004600041F00E944A008091D80082608093D800B9
:1004700081E008950F931F93CF93DF9300D000D0B6
:10048000CDB7DEB78C01DC0111968D919C9112974E
:100490000C97F1F41A968C911A97803669F48C9126
:1004A0008295807F8093ED008091EF008F73809321
:1004B000EF001092EE001C92F801128680E00F907F
:1004C0000F900F900F90DF91CF911F910F91089592
:1004D0000E9457008F3F09F4A4C490E6D8011A96F1
:1004E0009C931A978C938295807F8093ED00EEEE1B
:1004F000F0E01192E83FF105E1F7D8011196ED9196
:10050000FC9112973197EB30F10508F086C4E5575E
:10051000FD4F0C94DF07D4023D03AB030E044004EF
:100520007804B3044905C70596026A0680E0F8011D
:100530009781891708F4C2C319821A821B821C8210
:100540001092F7008B81880F880F880F9A819295FF
:1005500096959770890F8093F6008A81880F880F8F
:10056000880F9981929596959770890F8093F500E1
:100570008981880F880F880F8093F4008091EF00A5
:100580009781892B8093EF0081E083878091F4002D
:1005900084608093F4008091F00084608093F00088
:1005A0008091EF008062DCC1F8018485882309F422
:1005B0003FC08681880F880F880F95819295969508
:1005C0009770890F8093F3008581880F880F880FBB
:1005D0009481929596959770890F8093F20084810B
:1005E000880F880F880F9381929596959770890F41
:1005F0008093F1008381880F880F880F8093F0002B
:100600008091EF0080618093EF0080E0F801978196
:10061000891718F18385882361F18091F000846047
:100620008093F0008091EF00D80117969C9164C0F0
:1006300084818295880F807E938196959695969574
:10064000890F8093F30083818295880F807E809349
:10065000F2008091EF008F7ED6CFD8011896ED91F1
:10066000FC911997E80FF11D90819093FA008F5F2C
:10067000CDCF8091F0008B7FD3CFF8018485882384
:1006800009F448C08681880F880F880F958192955C
:1006900096959770890F8093F3008581880F880F56
:1006A000880F9481929596959770890F8093F200A8
:1006B0008481880F880F880F938192959695977003
:1006C000890F8093F1008381880F880F880F8093B2
:1006D000F0008091EF0080618093EF0080E0F801EE
:1006E0009781891760F113868091F0008B7F80934A
:1006F000F0008091EF009781892B8093EF0080912B
:10070000EF008F738093EF008091EF0080648093FF
:10071000EF00D4CE84818295880F807E9381969558
:1007200096959695890F8093F30083818295880F23
:10073000807E8093F2008091EF008F7ECDCFD80134
:100740001896ED91FC911997E80FF11D9081909307
:10075000FA008F5FC4CFD8011C968C911C97882318
:1007600009F446C016968C911697880F880F880F4B
:1007700015969C911597929596959770890F8093F1
:10078000F30015968C911597880F880F880F149693
:100790009C911497929596959770890F8093F2008B
:1007A00014968C911497880F880F880F13969C913C
:1007B0001397929596959770890F8093F1001396F1
:1007C0008C91880F880F880F8093F0008091EF0044
:1007D00080618093EF0081E0D8011B968C931B977A
:1007E0008091F00084608093F0008091EF001DCF35
:1007F000F80184818295880F807E938196959695E5
:100800009695890F8093F30083818295880F807E6F
:100810008093F2008091EF008F7EDBCF19821A82E5
:100820001B821C821092F7008B81880F880F880F23
:100830009A81929596959770890F8093F6008A8198
:10084000880F880F880F9981929596959770890FD8
:100850008093F5008981880F880F880F8093F400BA
:100860008091EF00F8019781892B8093EF008091B0
:10087000F4008B7F8093F4008091F4008E7FE8C0B9
:1008800019821A821B821C821092F7008B81880FBA
:10089000880F880F9A81929596959770890F80930B
:1008A000F6008A81880F880F880F99819295969516
:1008B0009770890F8093F5008981880F880F880FC2
:1008C0008093F4008091EF00D80117969C911797C0
:1008D000892B8093EF001B961C928091F40084601A
:1008E0008093F4008091F0008B7F8093F000C4CF60
:1008F00019821A821B821C821092F7008B81880F4A
:10090000880F880F9A81929596959770890F80939A
:10091000F6008A81880F880F880F998192959695A5
:100920009770890F8093F5008981880F880F880F51
:100930008093F4008091EF00F8019781892B8093D8
:10094000EF0081E083878091F40084608093F4005D
:100950008091F00084608093F0008091EF008F7DA3
:100960008093EF0089CFD8011C968C911C97882327
:1009700009F479C016968C911697880F880F880F06
:1009800015969C911597929596959770890F8093DF
:10099000F30015968C911597880F880F880F149681
:1009A0009C911497929596959770890F8093F20079
:1009B00014968C911497880F880F880F13969C912A
:1009C0001397929596959770890F8093F1001396DF
:1009D0008C91880F880F880F8093F0008091EF0032
:1009E00080618093EF008FEF9FEFDC0189839A8312
:1009F000AB83BC838093F7008B81880F880F880FAF
:100A00009A81929596959770890F8093F6008A81C6
:100A1000880F880F880F9981929596959770890F06
:100A20008093F5008981880F880F880F8093F400E8
:100A30008091EF00D80117969C91892B8093EF004D
:100A40008091F4008B7F8093F4008091F4008160AA
:100A50008093F4008091EF008F738093EF0080917A
:100A6000EF00806854CEF80184818295880F807EE3
:100A70009381969596959695890F8093F30083813F
:100A80008295880F807E8093F2008091EF008F7EA8
:100A9000A8CFF8018485882309F464C08681880F73
:100AA000880F880F9581929596959770890F8093FE
:100AB000F3008581880F880F880F94819295969511
:100AC0009770890F8093F2008481880F880F880FB8
:100AD0009381929596959770890F8093F100838109
:100AE000880F880F880F8093F0008091EF0080615D
:100AF0008093EF008FEF9FEFDC0189839A83AB83B4
:100B0000BC838093F7008B81880F880F880F9A81B0
:100B1000929596959770890F8093F6008A81880F39
:100B2000880F880F9981929596959770890F809379
:100B3000F5008981880F880F880F8093F4008091D9
:100B4000EF00F8019781892B8093EF001386809145
:100B5000F40084608093F4008091F0008B7F809398
:100B6000F00073CF84818295880F807E9381969563
:100B700096959695890F8093F30083818295880FCF
:100B8000807E8093F2008091EF008F7EB1CFD801FC
:100B90001C968C911C97882309F47AC016968C9128
:100BA0001697880F880F880F15969C911597929528
:100BB00096959770890F8093F30015968C911597F1
:100BC000880F880F880F14969C911497929596958C
:100BD0009770890F8093F20014968C911497880F68
:100BE000880F880F13969C911397929596959770FE
:100BF000890F8093F10013968C91880F880F880FCE
:100C00008093F0008091EF0080618093EF008FEF80
:100C10009FEFDC0189839A83AB83BC838093F700C9
:100C20008B81880F880F880F9A819295969597707F
:100C3000890F8093F6008A81880F880F880F998129
:100C4000929596959770890F8093F5008981880F0A
:100C5000880F880F8093F4008091EF00D8011796D9
:100C60009C911797892B8093EF0081E01B968C93C2
:100C70008091F40084608093F4008091F00084609F
:100C80008093F0008091EF008F7D8093EF00DDCEA8
:100C9000F80184818295880F807E93819695969540
:100CA0009695890F8093F30083818295880F807ECB
:100CB0008093F2008091EF008F7EA7CFD801189625
:100CC000ED91FC911997E80FF11D90819093FA0036
:100CD0008F5F2DCCD8011C968C911C97882309F42A
:100CE0007AC016968C911697880F880F880F1596E4
:100CF0009C911597929596959770890F8093F30024
:100D000015968C911597880F880F880F14969C91D3
:100D10001497929596959770890F8093F200149688
:100D20008C911497880F880F880F13969C911397B6
:100D3000929596959770890F8093F10013968C91F8
:100D4000880F880F880F8093F0008091EF008061FA
:100D50008093EF0080E0F8019781891708F451C073
:100D60008FEF9FEFDC0189839A83AB83BC838093F1
:100D7000F7008B81880F880F880F9A81929596953E
:100D80009770890F8093F6008A81880F880F880FEB
:100D90009981929596959770890F8093F500898136
:100DA000880F880F880F8093F4008091EF0097815F
:100DB000892B8093EF0081E083878091F400846029
:100DC0008093F4008091F00084608093F000809123
:100DD000EF0080625ACFF80184818295880F807E6F
:100DE0009381969596959695890F8093F3008381CC
:100DF0008295880F807E8093F2008091EF008F7E35
:100E0000A7CFD8011896ED91FC911997E80FF11D25
:100E100090819093FA008F5F9ECFD8011A961C9212
:100E20004DCB9FE1F80192874ACB1F93CF93DF937D
:100E3000EC018A858823D1F08F31C1F08F3FB1F06A
:100E400088818295807F8093ED000E946C00182F2E
:100E5000803299F068F4882309F46CC01A87809175
:100E6000EF008F738093EF001092EE0082E04CC091
:100E7000803409F440C0803A89F78091EF008F7088
:100E80008F83888599850E947F008091F00082FB86
:100E9000882780F98B878091EF0084FF39C081E03B
:100EA0008C878091F3008695869586958E838091B8
:100EB000F2009091F3008695869586959295990F0C
:100EC000907E890F8D838091F1009091F20086953C
:100ED000869586959295990F907E890F8C83809147
:100EE000F0009091F1008695869586959295990FE0
:100EF000907E890F8B831A878091EF008F73809388
:100F0000EF001092EE0080E0DF91CF911F910895E5
:100F10001C868091F3008295869587708C838091E2
:100F2000F2009091F300829586958770990F990F42
:100F3000990FDFCF81E0E8CFCF93DF93CDB7DEB756
:100F40002D970FB6F894DEBF0FBECDBF9A87898765
:100F50001D86688750E05D834C8382E090E09B8330
:100F60008A83CE0101960E943A028111FACFCE0106
:100F700001960E9415078130D1F32D960FB6F89493
:100F8000DEBF0FBECDBFDF91CF910895E1E6F0E067
:100F900080E88083108280E00C942D02CF93DF9351
:100FA00000D0CDB7DEB70E94C6071FEF19831A83A2
:100FB00048E062E0CE0101960E949C07F7CFEE0F59
:0E0FC000FF1F0590F491E02D0994F894FFCFE7
:00000001FF
