:100000000C943E000C945B000C945B000C945B0021
:100010000C945B000C945B000C945B000C945B00F4
:100020000C945B000C945B000C945B000C945B00E4
:100030000C945B000C945B000C945B000C945B00D4
:100040000C945B000C945B000C945B000C945B00C4
:100050000C94D8000C945B000C945B000C945B0037
:100060000C945B000C945B000C945B000C945B00A4
:100070000C945B000C945B000C945B0011241FBE7D
:10008000CFEFD8E0DEBFCDBF11E0A0E0B1E0EEE001
:10009000FCE002C005900D92A430B107D9F721E031
:1000A000A4E0B1E001C01D92A635B207E1F70E94BD
:1000B000CE010C9405060C940000FB01908121E018
:1000C00030E001C0220F8A95EAF7922B90830895C1
:1000D000FB01908121E030E001C0220F8A95EAF710
:1000E0002095292320830895FB01908121E030E0B1
:1000F00001C0220F8A95EAF7922B9083089584B16C
:10010000826884B9539A8CB582658CBD08958EBD82
:100110000DB407FEFDCF8EB5089508959091C900E6
:1001200094FDFCCF8093D20008958091C90084FD96
:10013000FCCF8091D2000895E8ECF0E080E8808365
:100140001092CE0089E18093CD0084E08093CC00B2
:100150008FE0808381E08093CA008DE890E09093E7
:10016000050180930401789408950F931F93CF9312
:10017000DF93EC018C01FE0101900020E9F731973B
:10018000EC1BFD0BC8018C1B9D0B8E179F0728F0E5
:10019000DF91CF911F910F910895F80181918F0107
:1001A0000E948E00E8CF909305018093040108958A
:1001B0001F920F920FB60F9211242F933F934F93DC
:1001C0005F936F937F938F939F93AF93BF93EF93BF
:1001D000FF938091C90080FF07C00E949500E091C5
:1001E0000401F09105010995FF91EF91BF91AF9145
:1001F0009F918F917F916F915F914F913F912F913F
:100200000F900FBE0F901F9018950F931F93CF93D1
:10021000DF93CDB7DEB7AE01495F5F4FFA01619161
:100220007191AF0186E091E00E9421038C0186E08C
:1002300091E00E94B500C801DF91CF911F910F910D
:1002400008951F93CF93DF93C82F162FD42F65E205
:1002500070E085E090E00E9468008C2F880F806439
:100260000E948700812F0E9487008D2F0E948700A7
:1002700065E270E085E090E0DF91CF911F910C94F2
:10028000740064E270E085E090E00E945D0065E249
:1002900070E085E090E00E9474000E947F0048E0DA
:1002A0006AE080E00C942101462F62E10C94210168
:1002B000462F63E10C942101462F60E00C9421014C
:1002C000462F61E00C942101CF93DF93C82FD62FE6
:1002D00065E270E085E090E00E9468008C2F880F56
:1002E00081640E9487008D2F0E94870080E00E9419
:1002F0008700C82F65E270E085E090E00E947400FE
:100300008C2FDF91CF9108950E94410160E080E041
:100310000E94600162E080E00E945801249A0E94DD
:100320007F000C949C00CF93DF932FE788E391E04C
:10033000215080409040E1F700C000002FE78CE2A0
:1003400093E0215080409040E1F700C0000060E061
:1003500080E00E94580180E00E948700C82FD0E012
:10036000DC2FCC2780E00E948700C82B62E080E071
:100370000E945801BE017595679575956795072E82
:10038000000C880B990B0E94280220E030E040E02E
:100390005DE30E948C02DF91CF9108950E94840159
:1003A000C0E0D1E00E94930120E030E048EC52E44C
:1003B0000E948C020E94F0017F936F93DF93CF9392
:1003C0000E9405019FEF20E782E09150204080408D
:1003D000E1F700C000000F900F900F900F90E2CF58
:1003E0000E94F7016894B1110C94860208950E944E
:1003F0006B0288F09F5798F0B92F9927B751B0F04A
:10040000E1F0660F771F881F991F1AF0BA95C9F798
:1004100014C0B13091F00E948502B1E008950C94AF
:100420008502672F782F8827B85F39F0B93FCCF362
:10043000869577956795B395D9F73EF49095809515
:10044000709561957F4F8F4F9F4F0895E89409C035
:1004500097FB3EF490958095709561957F4F8F4FF7
:100460009F4F9923A9F0F92F96E9BB279395F6950D
:10047000879577956795B795F111F8CFFAF4BB0F8B
:1004800011F460FF1BC06F5F7F4F8F4F9F4F16C0EF
:10049000882311F096E911C0772321F09EE8872F79
:1004A000762F05C0662371F096E8862F70E060E035
:1004B0002AF09A95660F771F881FDAF7880F9695AE
:1004C000879597F9089557FD9058440F551F59F097
:1004D0005F3F71F04795880F97FB991F61F09F3F31
:1004E00079F087950895121613061406551FF2CF5A
:1004F0004695F1DF08C0161617061806991FF1CFAA
:1005000086957105610508940895E894BB276627D0
:100510007727CB0197F908950E949F020C9410034E
:100520000E94020338F00E94090320F0952311F085
:100530000C94F9020C94FF0211240C9486020E9480
:10054000630270F3959FC1F3950F50E0551F629FB2
:10055000F001729FBB27F00DB11D639FAA27F00D1C
:10056000B11DAA1F649F6627B00DA11D661F829F43
:100570002227B00DA11D621F739FB00DA11D621F28
:10058000839FA00D611D221F749F3327A00D611D45
:10059000231F849F600D211D822F762F6A2F112427
:1005A0009F5750409AF0F1F088234AF0EE0FFF1F5A
:1005B000BB1F661F771F881F91505040A9F79E3FB1
:1005C000510580F00C94F9020C9486025F3FE4F32D
:1005D000983ED4F3869577956795B795F795E79507
:1005E0009F5FC1F7FE2B880F911D9695879597F910
:1005F000089597F99F6780E870E060E008959FEFA5
:1006000080EC089500240A941616170618060906A9
:10061000089500240A941216130614060506089578
:10062000092E0394000C11F4882352F0BB0F40F400
:10063000BF2B11F460FF04C06F5F7F4F8F4F9F4F40
:100640000895AEE0B0E0E7E2F3E00C94DC058C0145
:1006500086E08C831A8309838FEF9FE79E838D83C7
:10066000CE0101960E943E032F813885020F131F91
:10067000F80110822E96E4E00C94F805ABE0B0E0AF
:10068000E4E4F3E00C94CE057C013B018A01FC011B
:1006900017821682838181FFDAC1CE0101965C0147
:1006A000F7019381F30193FD859193FF81913F01C0
:1006B000882309F42FC1853239F493FD859193FF86
:1006C00081913F01853229F4B70190E00E944005F5
:1006D000E7CF912C212C312CFFE1F31538F08B3230
:1006E000D9F090F48032D9F0833249F137FC41C01F
:1006F00020ED280F2A3070F536FE24C08AE0989E3F
:10070000200D1124922E0EC08D32A9F0803371F786
:10071000232D2160322E06C0832D8260382EE32DDA
:10072000E4603E2EF30193FD859193FF81913F019B
:100730008111D2CF1EC0F32DF8603F2EF3CF232DB1
:100740002061E8CFEAE02E9E200D1124222EF32D09
:10075000F062F3CF8E3229F436FCDCC0232D206406
:10076000D9CF8C3621F4832D8068382EDBCF8836A4
:10077000C9F2982F9F7D95549330D8F08336C9F1F4
:100780008337E9F1833509F068C0280122E0420E81
:10079000511CF801C080D18036FE45C0692D70E043
:1007A000C6010E942A054C01F32DF0683F2E8201FC
:1007B0000BC00C5F1F4F9FE3998388248394912C77
:1007C0006501F32DFF773F2E33FC05C0822D90E0AD
:1007D0008816990658F1522C8114910471F5552010
:1007E00009F45ECFB70180E290E00E9440055A9480
:1007F000F6CFF801808189830E5F1F4FDECF28017D
:10080000F2E04F0E511CF801C080D18036FE08C0C6
:10081000692D70E0C6010E9435054C018201D1CFDF
:100820006FEF7FEFF7CF6FEF7FEFBACFB70180E2C7
:1008300090E00E9440052A94C9CFF60137FC8591CB
:1008400037FE81916F01B70190E00E944005511081
:100850005A9421E0821A9108BFCF843611F089366C
:10086000C1F5F80137FE2CC06081718182819381CE
:100870000C5F1F4FF32DFF763F2E97FF09C0909519
:100880008095709561957F4F8F4F9F4FF0683F2EF9
:100890002AE030E0A5010E947005C82ECA1836FE75
:1008A00062C0232D2E7F422EC91408F09BC034FE57
:1008B00005C032FC03C0832D8E7E482E892C55C086
:1008C00060817181072E000C880B990B0E5F1F4F02
:1008D000D1CF8537B9F4232D2F7ED22E2AE030E0F8
:1008E000F801D7FE39C060817181828193810C5FEC
:1008F0001F4FA5010E947005C82ECA18FD2DFF7755
:100900003F2ECDCF932D997FD92E8F3611F148F4FC
:100910008835B9F0F701868197812B96E2E10C9436
:10092000EA05803751F08837A9F7D4FE03C0FD2DC2
:10093000F460DF2E20E130E0D3CFE92FE061DE2E3E
:10094000F4CF34FE03C0292F2660D22E20E132E0FE
:10095000C7CF28E030E0C4CF6081718180E090E0B3
:100960000E5F1F4FC6CF8C2C432C44FE44C0FE01AB
:10097000EC0DF11D80818033B9F5942D997E492EBF
:10098000E42DE8705E2E43FC44C040FE3EC082145D
:1009900008F044C02C0C922C981844FE44C0B701B7
:1009A00080E390E00E94400542FE07C041FC38C051
:1009B00088E790E0B7010E944005C91408F440C0E0
:1009C000CA94D12CFFEFCF1ADF0ACA0CDB1CF60148
:1009D00082916F01B70190E00E944005AC14BD0404
:1009E000B1F7FDCE8C2CC1CF42FC02C08394C8CF9E
:1009F00083948394C5CF842D867811F2F7CFB70105
:100A000080E290E00E94400583948214C0F3512C50
:100A1000C4CF8214E0F7522C5818BFCF9C2CBDCF06
:100A200088E590E0C7CF842D867839F241FE06C074
:100A30008BE247FC8DE2B70190E0BDCF80E2F9CFB9
:100A4000B70180E390E00E9440059A94B6CF8FEF03
:100A50009FEF63CFFC010590615070400110D8F703
:100A6000809590958E0F9F1F0895FC0161507040F6
:100A700001900110D8F7809590958E0F9F1F0895D3
:100A80000F931F93CF93DF93182F092FEB018B81C7
:100A900081FD09C01FEF0FEF812F902FDF91CF91C4
:100AA0001F910F91089582FF14C02E813F818C8188
:100AB0009D81281739073CF4E881F981CF0101961F
:100AC0009983888310838E819F8101969F838E8373
:100AD000E3CFE885F985812F0995892BA1F3DACF3A
:100AE000FA01AA27283051F1203181F1E8946F935F
:100AF0006E7F6E5F7F4F8F4F9F4FAF4FB1E03ED005
:100B0000B4E03CD0670F781F891F9A1FA11D680FA2
:100B1000791F8A1F911DA11D6A0F711D811D911DD5
:100B2000A11D20D009F468943F912AE0269F11244A
:100B30003019305D3193DEF6CF010895462F4770AE
:100B4000405D4193B3E00FD0C9F7F6CF462F4F7009
:100B5000405D4A3318F0495D31FD4052419302D067
:100B6000A9F7EACFB4E0A69597958795779567950D
:100B7000BA95C9F700976105710508959B01AC010D
:100B80000A2E06945795479537952795BA95C9F734
:100B9000620F731F841F951FA01D08952F923F920F
:100BA0004F925F926F927F928F929F92AF92BF927D
:100BB000CF92DF92EF92FF920F931F93CF93DF9329
:100BC000CDB7DEB7CA1BDB0B0FB6F894DEBF0FBE86
:100BD000CDBF09942A88398848885F846E847D84D3
:100BE0008C849B84AA84B984C884DF80EE80FD80D5
:100BF0000C811B81AA81B981CE0FD11D0FB6F8944B
:0E0C0000DEBF0FBECDBFED010895F894FFCF0B
:040C0E0025640A004F
:00000001FF
