:100000000C943E000C945B000C945B000C945B0021
:100010000C945B000C945B000C945B000C945B00F4
:100020000C945B000C945B000C945B000C945B00E4
:100030000C945B000C945B000C945B000C945B00D4
:100040000C945B000C945B000C945B000C945B00C4
:100050000C9411060C945B000C945B000C945B00F8
:100060000C945B000C945B000C945B000C945B00A4
:100070000C945B000C945B000C945B0011241FBE7D
:10008000CFEFD8E0DEBFCDBF11E0A0E0B1E0E6E603
:10009000FAE102C005900D92A233B107D9F721E031
:1000A000A2E3B1E001C01D92A438B207E1F70E94BB
:1000B0006E060C94310D0C94000065E270E086E051
:1000C00090E00E9449068FE99FE00197F1F700C098
:1000D000000065E270E086E090E00E9455068FE93E
:1000E0009FE00197F1F700C0000008951F93CF93A0
:1000F000DF93C82F162FD42F65E270E085E090E0E3
:100100000E9449068C2F880F80640E946806812F08
:100110000E9468068D2F0E94680665E270E085E007
:1001200090E00E9455068FE19EE40197F1F700C030
:100130000000DF91CF911F91089564E270E086E0A6
:1001400090E00E943E0665E270E086E090E00E944A
:10015000550664E270E085E090E00E943E0665E2AC
:1001600070E085E090E00E9455060E94600648E03D
:100170006AE080E00C947600CF93DF93C82FD62FEF
:1001800065E270E085E090E00E9449068C2F880FC0
:1001900081640E9468068D2F0E94680680E00E949C
:1001A0006806C82F65E270E085E090E00E94550681
:1001B0008FE19EE40197F1F700C000008C2FDF91E2
:1001C000CF910895CF93DF93C82FD62F62E10E947D
:1001D000BC0041E050E001C0440FDA95EAF7482B3B
:1001E00062E18C2FDF91CF910C947600CF93DF9357
:1001F000C82FD62F63E10E94BC0041E050E001C04F
:10020000440FDA95EAF7482B63E18C2FDF91CF9109
:100210000C947600CF93DF93C82FD62F62E10E9413
:10022000BC0041E050E001C0440FDA95EAF7409588
:10023000482362E18C2FDF91CF910C947600CF930D
:10024000DF93C82FD62F63E10E94BC0041E050E04D
:1002500001C0440FDA95EAF74095482363E18C2FFB
:10026000DF91CF910C9476001F93CF93DF93C82F2B
:10027000D62F142F60E00E94BC00112331F0113002
:10028000A1F0DF91CF911F91089521E030E001C0EE
:10029000220FDA95EAF72095422F482360E08C2F51
:1002A000DF91CF911F910C94760041E050E001C0A6
:1002B000440FDA95EAF7482BF1CF1F93CF93DF93E2
:1002C000C82FD62F142F61E00E94BC00112331F0FB
:1002D0001130A1F0DF91CF911F91089521E030E01E
:1002E00001C0220FDA95EAF72095422F482361E0FA
:1002F0008C2FDF91CF911F910C94760041E050E05C
:1003000001C0440FDA95EAF7482BF1CFCF930E9452
:100310009D00C1E040E06C2F80E00E945D016C2FE9
:1003200080E00E94F600CF5FC530A1F762E080E078
:10033000CF910C941F01CF93DF932FE78CE293E0D2
:10034000215080409040E1F700C0000061E080E073
:100350000E941F0180E00E946806C82FD0E0DC2FB9
:10036000CC2780E00E946806C82B61E080E00E94F4
:10037000F600BE017595679575956795072E000C7B
:10038000880B990B0E948B0920E030E040E05DE390
:100390000E94170ADF91CF910895CF92DF92EF92DA
:1003A000FF9263E080E00E941F0180E00E946806E7
:1003B000C82ED12CE12CF12CFE2CED2CDC2CCC24E5
:1003C00080E00E946806C82AFE2CED2CDC2CCC2490
:1003D00080E00E946806C82AFE2CED2CDC2CCC2480
:1003E00080E00E946806C82A63E080E00E94F60070
:1003F000C701B601FF90EF90DF90CF9008950E9463
:10040000CD01BC017F7380E090E00E94890920E06B
:1004100038EF4FE756E40E94E10820E030E048EC76
:1004200052E40E94170A08950E94CD0176956795BF
:100430007695679580E090E00E94890920E038EF8A
:100440004FE756E40E94E10820E030E045E253E443
:100450000E94170A20E030E040E252E40E94740853
:10046000089564E080E00E941F018EE10E9468060A
:100470008FE697E10197F1F700C0000064E080E0AB
:100480000C94F600CF93DF93C82F64E080E00E94C5
:100490001F018C2F880F806A0E94680680E00E94EE
:1004A0006806C82FD0E0DC2FCC2780E00E946806C9
:1004B000C82B64E080E00E94F600CE01DF91CF916E
:1004C00008950F931F93CF938C01C0E08C2F0E944F
:1004D0004202F801819391938F01CF5FC830B1F749
:1004E000CF911F910F910895CF92DF92EF92FF92DB
:1004F000F82E64E080E00E941F018F2D0E946806A4
:100500008FE19EE40197F1F700C0000064E080E015
:100510000E94F60064E080E00E941F0180E00E94DB
:10052000680680E00E946806C82ED12CE12CF12CD0
:100530007601DD24CC2480E00E946806D82A80E081
:100540000E946806C82A64E080E00E94F600C701A5
:10055000B601FF90EF90DF90CF9008952F923F92D9
:100560004F925F926F927F928F929F92AF92BF92C3
:10057000CF92DF92EF92FF920F931F93CF93DF936F
:10058000CDB7DEB76F970FB6F894DEBF0FBECDBF05
:100590009C8F8B8F88E40E9474026D877E878F8783
:1005A000988B88E50E9474022B013C01AB8DBC8DB9
:1005B0001A968D919C911B97A0E0B0E0BA2FA92FBD
:1005C000982F8827481A590A6A0A7B0AEB8DFC8DF6
:1005D0006485758580E090E0A30192010E946F0719
:1005E000F22E032F142FB52FF62FE72FD82EE92E3A
:1005F000A0E00E94450884F42150310940485F4F33
:100600006F4F7F4F8F4F9F4FF22E032F142FB52F19
:10061000F62FE72FD82EE92E2F2D302F412F5B2FCD
:100620006F2F7E2F8D2D9E2D07E10E940908490115
:100630005A01950184010053184F2F4F3F4F0983F2
:100640001A832B833C83AB8DBC8D18966D917C9166
:10065000199780E090E0A30192010E946F07F22EAB
:10066000032F142FB52FF62FE72FD82EE92EA0E059
:100670000E9445085CF4AFE70E943008F22E032F79
:10068000142FB52FF62FE72FD82EE92E2F2D302F30
:10069000412F5B2F6F2F7E2F8D2D9E2D07E00E9407
:1006A000090819014A01B62FA72F8D839E83EB8D70
:1006B000FC8DA480B580950140E050E060E070E0E2
:1006C00080E090E000E10E94F00759016A017B019F
:1006D0008C019101A4016B2F7A2F8D819E810E9444
:1006E0002708298B3A8B4B8B5C8B6D8B7E8B8F8B8A
:1006F000988F6681778180E090E0A30192010E944B
:100700006F07F22E032F142FB52FF62FE72FD82EB9
:10071000E92EA0E00E94450884F421503F4F4F4F3E
:100720005F4F6F4F7F4F8F4F9F4FF22E032F142F2E
:10073000B52FF62FE72FD82EE92E2F2D302F412F52
:100740005B2F6F2F7E2F8D2D9E2D08E00E940908B4
:1007500039014A01B62FA72F582E492EEB8DFC8D5B
:10076000A280B380C12CD12C9501A60160E070E07D
:1007700080E090E00FE00E94F00759016A017B01E0
:100780008C019301A4016B2F7A2F852D942D0E944B
:1007900027082F8F3E8F942E852E362E272E898F59
:1007A0009A8FE980FA800B811C8120EDE21627E008
:1007B000F206010511050CF01FC1C801B701605D0B
:1007C0007740810991099B01AC010E94E706A3E0F3
:1007D000B0E09B01AC010E940B076D837E838F8389
:1007E0009887DC01CB01BB0F880B982FDC01898730
:1007F0008A878B878C87A7E0B0E00E940B077B017C
:100800008C01E3E015950795F794E794EA95D1F705
:10081000570168012B013C01770C4408542C32012C
:100820004B8EE42D4D8EF42D89819A81AB81BC8154
:1008300084322AEF92072FEFA207B20754F5BC01CA
:10084000CD0164527A4F8F4F9F4F9B01AC010E94A4
:10085000E706DC01CB01880F991FAA1FBB1F5C01B3
:100860006D01DD0CAA08BA2C65019C01AD016A2D51
:100870007A2D8A2D9A2D57016801E42CF42C042D31
:10088000142D0E94270859016A016B8FE72F8D8F65
:10089000F92F2F8D3E8D492D582D632D722D898D69
:1008A0009A8DEB8CFE2E0D8D1F2F0E943C08122F6F
:1008B000D32EE42EB52FF62FE72FF82E092FA0E028
:1008C0000E94450884F421503109404E5F4F6F4F1C
:1008D0007F4F8F4F9F4F122FD32EE42EB52FF62F21
:1008E000E72FF82E092F212F3D2D4E2D5B2F6F2F37
:1008F0007E2F8F2D902F05E10E940908ED84FE8444
:100900000F8518891701280157016201E12CF12C8C
:1009100000E010E00E9416074901E42F752EB62F63
:10092000A72F682E592E29893A894B895C896D89B0
:100930007E898F89988DAD80BE80CF80D884E984F0
:10094000FA840B851C850E943C0859016A017B01D1
:100950008C0194014E2F572D6B2F7A2F862D952DBC
:100960000E943C08122FD32EE42EB52FF62FE72F2E
:10097000F82E092FA0E00E94450884F42150304849
:100980004F4F5F4F6F4F7F4F8F4F9F4F122FD32E81
:10099000E42EB52FF62FE72FF82E092F212F3D2D0E
:1009A0004E2D5B2F6F2F7E2F8F2D902F0FE00E94EB
:1009B0000908B901CA010E948B0920E030E04AE72A
:1009C00054E40E94E1086F960FB6F894DEBF0FBEA4
:1009D000CDBFDF91CF911F910F91FF90EF90DF90EE
:1009E000CF90BF90AF909F908F907F906F905F90CF
:1009F0004F903F902F90089589819A81AB81BC815F
:100A00008439E1E19E07A105B10584F1BC01CD0166
:100A100064597141810991099B01AC010E94E7066B
:100A20002B013C0123E075946794579447942A95D1
:100A3000D1F76B017C01FF0CCC08DC2C7601920114
:100A4000A3016C2D7C2D8C2D9C2D0E94A907590192
:100A50006A016B8FE72F8D8FF92F1D821E821F82F7
:100A6000188619861A861B861C8613CFA12CB12CDA
:100A7000C12CD12C1B8EE0E01D8EF0E0EECFFC01EE
:100A80001182108213821282158214820895FC0151
:100A900081E090E0208131812233310511F080E046
:100AA00090E00895FC0181E090E020813181232BCA
:100AB00011F080E090E00895FC0120813181223323
:100AC0003105D1F084819581DC01AA0FBB1FAA0FEB
:100AD000BB1FAE0FBF1F16964D935D936D937C9316
:100AE0001997019662E370E00E94F706958384836C
:100AF0002F5F3F4F318320830895CF92DF92EF9293
:100B0000FF92FC01208131812115310509F182819B
:100B10009381DC01AA0FBB1FAA0FBB1FAE0FBF1F23
:100B20001696CD90DD90ED90FC901997019662E3BA
:100B300070E00E94F706938382832150310931834C
:100B40002083C701B601FF90EF90DF90CF9008950A
:100B5000C12CD12C7601F5CFA0E0B0E0E2EBF5E0BE
:100B60000C94C707AE01495F5F4FFA016191719123
:100B7000AF0184E391E00E94840A8C0184E391E058
:100B80000E94EE05C801E4E00C94E30708959091FB
:100B9000C90094FDFCCF8093D20008958091C900D4
:100BA00084FDFCCF8091D2000895E8ECF0E080E86D
:100BB00080831092CE0089E18093CD0084E0809301
:100BC000CC008FE0808381E08093CA0086EC95E0C2
:100BD0009093330180933201789408950F931F937B
:100BE000CF93DF93EC018C01FE0101900020E9F727
:100BF0003197EC1BFD0BC8018C1B9D0B8E179F07BB
:100C000028F0DF91CF911F910F910895F801819104
:100C10008F010E94C705E8CF909333018093320182
:100C200008951F920F920FB60F9211242F933F93A6
:100C30004F935F936F937F938F939F93AF93BF93E4
:100C4000EF93FF938091C90080FF07C00E94CE05FB
:100C5000E0913201F09133010995FF91EF91BF913D
:100C6000AF919F918F917F916F915F914F913F9144
:100C70002F910F900FBE0F901F901895FB01908140
:100C800021E030E001C0220F8A95EAF7922B908391
:100C90000895FB01908121E030E001C0220F8A9588
:100CA000EAF72095292320830895FB01908121E014
:100CB00030E001C0220F8A95EAF7922B90830895C5
:100CC00084B1826884B9539A8CB582658CBD0895CD
:100CD0008EBD0DB407FEFDCF8EB508950E9486012E
:100CE0000E94D50581E291E09F938F930E94AC050D
:100CF00080E091E09F938F930E94AC0540E066E016
:100D000080E00E945D010F900F900F900F90C2E164
:100D1000D1E003E211E066E080E00E94F6002FEFF0
:100D200089E698E1215080409040E1F700C0000042
:100D300066E080E00E941F012FEF89E698E12150D4
:100D400080409040E1F700C000000E949B0120E03D
:100D500030E048EC52E40E94170A0E9453097F9346
:100D60006F93DF93CF930E94AC050E94FF0120E0B8
:100D700030E048EC52E40E94170A0E9453097F9326
:100D80006F931F930F930E94AC059FEF20E782E0C3
:100D9000915020408040E1F700C000000E94140202
:100DA00020E030E048EC52E40E94170A0E94530908
:100DB0007F936F93DF93CF930E94AC058DB79EB75F
:100DC0000C960FB6F8949EBF0FBE8DBFA4CFDB016B
:100DD0008F939F930E940B07BF91AF91A29F800DAD
:100DE000911DA39F900DB29F900D1124089597FB24
:100DF000072E16F4009407D077FD09D00E94510801
:100E000007FC05D03EF4909581959F4F089570950D
:100E100061957F4F08950E946508A59F900DB49F2E
:100E2000900DA49F800D911D11240895DF93CF9301
:100E30001F930F939A9DF02D219FF00D8B9DF00D28
:100E40008A9DE02DF10D039FF00D029FE00DF11D35
:100E50004E9DE00DF11D5E9DF00D4F9DF00D7F93B9
:100E60006F93BF92AF925F934F93D5010E94650835
:100E70008B01AC01D7010E946508EB01E80FF91F57
:100E8000D6010E9466072F913F91D6010E94650806
:100E9000C60FD71FE81FF91FAF91BF910E946607C9
:100EA0002F913F910E946508C60FD71FE81FF91FB9
:100EB000D6010E946508E60FF71F9801BE01CF0119
:100EC00011240F911F91CF91DF9108950E94650821
:100ED000460F571FC81FD91F08F43196089597FB76
:100EE00057FF0C947F079F938F930E947F076E1B81
:100EF0007F0BAF91BF918A0B9B0B0895E894DF9312
:100F0000CF93FC01DB010E9465087F936F93E90199
:100F10009A01AC01BF93AF933F932F93DF010E94DF
:100F2000650826F46C1B7D0B820B930B9E01EB0175
:100F3000FC010E946607AF91BF912F913F910E94E3
:100F40006607BE01CF01F9012F913F91CF91DF914B
:100F50000895609570958095909530954095509541
:100F600021953F4F4F4F5F4F6F4F7F4F8F4F9F4F99
:100F700008952F923F924F925F926F927F928F923D
:100F80009F92AF92BF92CF92DF92EF92FF920F9318
:100F90001F93CF93DF93CDB7DEB7CA1BDB0B0FB622
:100FA000F894DEBF0FBECDBF09942A8839884888DF
:100FB0005F846E847D848C849B84AA84B984C88475
:100FC000DF80EE80FD800C811B81AA81B981CE0F6C
:100FD000D11D0FB6F894DEBF0FBECDBFED01089551
:100FE0000F93083090F0982F872F762F652F542F6E
:100FF000432F322F22270850F4CF220F331F441FD4
:10100000551F661F771F881F991F0A95B2F70F910A
:10101000089597FB10F8169400080F93083098F085
:101020000850232F342F452F562F672F782F892FC5
:10103000902DF4CF0594979587957795679557955B
:101040004795379527950A95AAF70F9108952A0D88
:101050003B1D4C1D5D1D6E1D7F1D801F911F089542
:101060000024A7FD00942A0F301D401D501D601D57
:10107000701D801D901D08952A193B094C095D09BA
:101080006E097F09800B910B08950024A7FD009441
:101090002A1730054005500560057005800590054C
:1010A0000895AA1BBB1B51E107C0AA1FBB1FA617AF
:1010B000B70710F0A61BB70B881F991F5A95A9F701
:1010C00080959095BC01CD010895A29FB001B39F7A
:1010D000C001A39F700D811D1124911DB29F700D41
:1010E000811D1124911D08955058BB27AA270E94E5
:1010F0008C080C94DD090E94CF0938F00E94D609B3
:1011000020F039F49F3F19F426F40C94CC090EF426
:10111000E095E7FB0C94C609E92F0E94EE0958F30D
:10112000BA17620773078407950720F079F4A6F5CC
:101130000C94100A0EF4E0950B2EBA2FA02D0B0183
:10114000B90190010C01CA01A0011124FF27591B0C
:1011500099F0593F50F4503E68F11A16F040A22F12
:10116000232F342F4427585FF3CF46953795279583
:10117000A795F0405395C9F77EF41F16BA0B620B82
:10118000730B840BBAF09150A1F0FF0FBB1F661FC9
:10119000771F881FC2F70EC0BA0F621F731F841F0C
:1011A00048F4879577956795B795F7959E3F08F032
:1011B000B0CF9395880F08F09927EE0F97958795F4
:1011C00008950E94F5080C94DD090E94D60958F094
:1011D0000E94CF0940F029F45F3F29F00C94C60922
:1011E00051110C94110A0C94CC090E94EE0968F379
:1011F0009923B1F3552391F3951B550BBB27AA27D0
:1012000062177307840738F09F5F5F4F220F331F09
:10121000441FAA1FA9F335D00E2E3AF0E0E832D0D1
:1012200091505040E695001CCAF72BD0FE2F29D0D4
:10123000660F771F881FBB1F261737074807AB07A6
:10124000B0E809F0BB0B802DBF01FF2793585F4F1B
:101250003AF09E3F510578F00C94C6090C94110A9F
:101260005F3FE4F3983ED4F3869577956795B795FD
:10127000F7959F5FC9F7880F911D9695879597F908
:101280000895E1E0660F771F881FBB1F6217730781
:101290008407BA0720F0621B730B840BBA0BEE1F96
:1012A00088F7E09508950E945A096894B1110C944A
:1012B000110A08950E94F60988F09F5798F0B92FF7
:1012C0009927B751B0F0E1F0660F771F881F991F7B
:1012D0001AF0BA95C9F714C0B13091F00E94100A03
:1012E000B1E008950C94100A672F782F8827B85F13
:1012F00039F0B93FCCF3869577956795B395D9F7D3
:101300003EF490958095709561957F4F8F4F9F4FDC
:101310000895E89409C097FB3EF4909580957095E8
:1013200061957F4F8F4F9F4F9923A9F0F92F96E931
:10133000BB279395F695879577956795B795F111A6
:10134000F8CFFAF4BB0F11F460FF1BC06F5F7F4F43
:101350008F4F9F4F16C0882311F096E911C0772355
:1013600021F09EE8872F762F05C0662371F096E85E
:10137000862F70E060E02AF09A95660F771F881F2D
:10138000DAF7880F9695879597F9089597F99F67EB
:1013900080E870E060E008959FEF80EC08950024FD
:1013A0000A941616170618060906089500240A94CA
:1013B00012161306140605060895092E0394000C50
:1013C00011F4882352F0BB0F40F4BF2B11F460FFDF
:1013D00004C06F5F7F4F8F4F9F4F089557FD905808
:1013E000440F551F59F05F3F71F04795880F97FBE9
:1013F000991F61F09F3F79F08795089512161306A3
:101400001406551FF2CF4695F1DF08C016161706D1
:101410001806991FF1CF8695710561050894089506
:10142000E894BB2766277727CB0197F908950E9498
:101430002A0A0C94DD090E94CF0938F00E94D609CF
:1014400020F0952311F00C94C6090C94CC091124BA
:101450000C94110A0E94EE0970F3959FC1F3950F49
:1014600050E0551F629FF001729FBB27F00DB11D28
:10147000639FAA27F00DB11DAA1F649F6627B00DB8
:10148000A11D661F829F2227B00DA11D621F739FA1
:10149000B00DA11D621F839FA00D611D221F749FAF
:1014A0003327A00D611D231F849F600D211D822FF6
:1014B000762F6A2F11249F5750409AF0F1F088231D
:1014C0004AF0EE0FFF1FBB1F661F771F881F91504A
:1014D0005040A9F79E3F510580F00C94C6090C942A
:1014E000110A5F3FE4F3983ED4F3869577956795AC
:1014F000B795F795E7959F5FC1F7FE2B880F911D74
:101500009695879597F90895AEE0B0E0EAE8FAE09D
:101510000C94C7078C0186E08C831A8309838FEFB4
:101520009FE79E838D83CE0101960E94A10A2F81A1
:101530003885020F131FF80110822E96E4E00C94F8
:10154000E307ABE0B0E0E7EAFAE00C94B9077C010E
:101550003B018A01FC0117821682838181FFDAC177
:10156000CE0101965C01F7019381F30193FD859112
:1015700093FF81913F01882309F42FC1853239F40B
:1015800093FD859193FF81913F01853229F4B70145
:1015900090E00E94A30CE7CF912C212C312CFFE18D
:1015A000F31538F08B32D9F090F48032D9F08332D1
:1015B00049F137FC41C020ED280F2A3070F536FE86
:1015C00024C08AE0989E200D1124922E0EC08D32E8
:1015D000A9F0803371F7232D2160322E06C0832DB0
:1015E0008260382EE32DE4603E2EF30193FD859159
:1015F00093FF81913F018111D2CF1EC0F32DF8607E
:101600003F2EF3CF232D2061E8CFEAE02E9E200D60
:101610001124222EF32DF062F3CF8E3229F436FC02
:10162000DCC0232D2064D9CF8C3621F4832D806833
:10163000382EDBCF8836C9F2982F9F7D9554933092
:10164000D8F08336C9F18337E9F1833509F068C0F2
:10165000280122E0420E511CF801C080D18036FEE4
:1016600045C0692D70E0C6010E948D0C4C01F32D20
:10167000F0683F2E82010BC00C5F1F4F9FE39983E0
:1016800088248394912C6501F32DFF773F2E33FC42
:1016900005C0822D90E08816990658F1522C8114CD
:1016A000910471F5552009F45ECFB70180E290E016
:1016B0000E94A30C5A94F6CFF801808189830E5FB3
:1016C0001F4FDECF2801F2E04F0E511CF801C08001
:1016D000D18036FE08C0692D70E0C6010E94980CCA
:1016E0004C018201D1CF6FEF7FEFF7CF6FEF7FEF2C
:1016F000BACFB70180E290E00E94A30C2A94C9CF30
:10170000F60137FC859137FE81916F01B70190E0BA
:101710000E94A30C51105A9421E0821A9108BFCF65
:10172000843611F08936C1F5F80137FE2CC060818E
:101730007181828193810C5F1F4FF32DFF763F2EC5
:1017400097FF09C090958095709561957F4F8F4F59
:101750009F4FF0683F2E2AE030E0A5010E94D30C95
:10176000C82ECA1836FE62C0232D2E7F422EC91401
:1017700008F09BC034FE05C032FC03C0832D8E7E72
:10178000482E892C55C060817181072E000C880B72
:10179000990B0E5F1F4FD1CF8537B9F4232D2F7EC4
:1017A000D22E2AE030E0F801D7FE39C06081718185
:1017B000828193810C5F1F4FA5010E94D30CC82E1C
:1017C000CA18FD2DFF773F2ECDCF932D997FD92EAF
:1017D0008F3611F148F48835B9F0F7018681978189
:1017E0002B96E2E10C94D507803751F08837A9F7A2
:1017F000D4FE03C0FD2DF460DF2E20E130E0D3CF16
:10180000E92FE061DE2EF4CF34FE03C0292F2660DD
:10181000D22E20E132E0C7CF28E030E0C4CF608193
:10182000718180E090E00E5F1F4FC6CF8C2C432C5F
:1018300044FE44C0FE01EC0DF11D80818033B9F5FA
:10184000942D997E492EE42DE8705E2E43FC44C011
:1018500040FE3EC0821408F044C02C0C922C981814
:1018600044FE44C0B70180E390E00E94A30C42FE16
:1018700007C041FC38C088E790E0B7010E94A30C84
:10188000C91408F440C0CA94D12CFFEFCF1ADF0A64
:10189000CA0CDB1CF60182916F01B70190E00E9437
:1018A000A30CAC14BD04B1F7FDCE8C2CC1CF42FC0F
:1018B00002C08394C8CF83948394C5CF842D867847
:1018C00011F2F7CFB70180E290E00E94A30C83945D
:1018D0008214C0F3512CC4CF8214E0F7522C581854
:1018E000BFCF9C2CBDCF88E590E0C7CF842D8678F4
:1018F00039F241FE06C08BE247FC8DE2B70190E071
:10190000BDCF80E2F9CFB70180E390E00E94A30C45
:101910009A94B6CF8FEF9FEF63CFFC010590615093
:1019200070400110D8F7809590958E0F9F1F0895F5
:10193000FC016150704001900110D8F7809590959E
:101940008E0F9F1F08950F931F93CF93DF93182F30
:10195000092FEB018B8181FD09C01FEF0FEF812F54
:10196000902FDF91CF911F910F91089582FF14C0A6
:101970002E813F818C819D81281739073CF4E881B5
:10198000F981CF0101969983888310838E819F818D
:1019900001969F838E83E3CFE885F985812F099592
:1019A000892BA1F3DACFFA01AA27283051F120318F
:1019B00081F1E8946F936E7F6E5F7F4F8F4F9F4FE3
:1019C000AF4FB1E03ED0B4E03CD0670F781F891F25
:1019D0009A1FA11D680F791F8A1F911DA11D6A0FF3
:1019E000711D811D911DA11D20D009F468943F91A6
:1019F0002AE0269F11243019305D3193DEF6CF01A5
:101A00000895462F4770405D4193B3E00FD0C9F76A
:101A1000F6CF462F4F70405D4A3318F0495D31FDD7
:101A20004052419302D0A9F7EACFB4E0A69597952A
:101A3000879577956795BA95C9F700976105710500
:101A400008959B01AC010A2E06945795479537954A
:101A50002795BA95C9F7620F731F841F951FA01DA4
:061A60000895F894FFCF89
:101A66005541525420496E697469616C697A65649E
:101A76000A0054656D70657261747572653A092560
:101A8600640A0048756D69646974793A0925640ABF
:021A960000004E
:00000001FF
